:100000000C942A001895000018950000189500001F
:10001000189500001895000018950000189500002C
:10002000189500001895000018950000189500001C
:10003000189500001895000018950000189500000C
:1000400018950000189500001895000018950000FC
:10005000189500008FE58DBFC8E3E0E24E2E84E0E6
:100060008EBFD4E0F4E05F2EA89584B7082E877F7A
:1000700084BF88E1992781BD91BDEEEFF3E0A0E652
:10008000B0E088278D933197E9F783E389B980E061
:1000900080BD88E18AB9662480E090E0A3E6B0E004
:1000A0008D939C938CED95E0A1E6B0E08D939C93AD
:1000B0008E9A789481E090E0A3E6B0E08D939C93D3
:1000C000A3E6B0E00D911C91043150E015071CF03F
:1000D00011F00C948300969AEF93FF93E4EBFBE00E
:1000E0000E944201FF91EF919698EF93FF93ECE30A
:1000F000FCE90E944201FF91EF91A3E6B0E00E946B
:1001000033010C9460000E943A01082F013011F075
:100110000C942F010E943E01A0E6B0E08C9381E395
:10012000482F00916000041781E009F080E08F9370
:10013000A1E6B0E00D911C91003D57E0150780E06D
:100140000CF481E09F918923882311F40C94DF0043
:10015000A1E6B0E00D911C910C5E1F4FA1E6B0E04E
:100160000D931C93969AA1E6B0E0ED91FC910E944C
:1001700045019698EF93FF93ECE3FCE90E9442015E
:10018000FF91EF910E943A01082F013081E009F0C0
:1001900080E08F93A1E6B0E00D911C91043C59E002
:1001A000150780E014F009F081E09F91892B8823E6
:1001B00011F40C94DD000C94DF000C94A80082E391
:1001C000482F00916000041781E009F080E08F93D0
:1001D000A1E6B0E00D911C91083E53E0150780E0C8
:1001E00014F009F081E09F918923882311F40C9485
:1001F0002F01A1E6B0E00D911C9104511040A1E641
:10020000B0E00D931C93969AA1E6B0E0ED91FC91BD
:100210000E9445019698EF93FF93ECE3FCE90E945E
:100220004201FF91EF910E943A01082F013081E0D5
:1002300009F080E08F93A1E6B0E00D911C91043F9E
:1002400051E0150780E00CF481E09F91892B882311
:1002500011F40C942D010C942F010C94F9000C94C2
:100260008300F894FFCFED91FC91EF5FFF4FFC937B
:10027000EE93089581E05F9B882708955F9BFECFF2
:100280008CB108953197F1F70895E03019F4F0300A
:1002900019F40895000000000000000000000000B4
:1002A0003197D1F70895689462F80895E89462F858
:0202B0000895AF
:00000001FF
